:400000000080002011000000096000000960000008B5044B1A6803F53F5302331A6006F00DF800BFFA46004010B5054C237833B9044B13B10448AFF300800123237010BD9A
:40004000D081FF1F0000000070C20000084B10B51BB108480849AFF300800848036803B910BD074B002BFBD0BDE81040184700BF0000000070C20000D481FF1F0881FF1F4D
:400080000000000008B562B600F074F800F078FE01F0E0FD04F000FD05F0F6F928490B46002243F8042B4A605A60264B1A70264B93F8483013F0100F02D00122214B1A70D8
:4000C000224806F0C1FE1F4908780A46002342F8043B4B60043242F8043B42F8043B136008706422CA710A724A7219490A4642F8043B4B605360174A1370174A1370174AA4
:400100001370174A1370174A137000F05DFE01F05BFE04F061FA01F041FE02F023FF03F04BFE03F0D1FA04F063FC03F039FD01F05FFE00F097FF00F0C3FD04F06FF9C2E74D
:40014000F486FF1FD086FF1F8487FF1FA5010000E886FF1FE686FF1FE586FF1F0087FF1FCC86FF1FE486FF1F0122014B1A707047EC81FF1F08B506F02BFA074806F054FAC2
:40018000012006F0D5F906F0C9FE044806F06CFF0022034B1A7008BD84C6000069010000CD86FF1F0122014B1A707047CD86FF1F08B5034B1B780BB901F026FE08BD00BFF0
:4001C000D086FF1F00000000F0B597B0B44B93E803000790ADF82010090C8DF82210B14A04AB07CA83E80700AF4B93F90130032B00F23985DFE813F004001F023A03150522
:400200000722AA4B1A7013A800F038FE0020014606F0ECF913A806F079F9A34B1B78002B60D00022A04B1A70A04B93F90130072B53D8DFE803F0040C1014182335479C4BCC
:400240001B78012B49D19B4805F0BEF945E09A48FFF7AEFF41E09948FFF7AAFF3DE09848FFF7A6FF39E0904B9B781BB901228E4B9A7032E000228C4B9A702EE08A4A92F9D0
:400280000330B3FA83F35B09D3702BB1874BB3F9020006F015FE20E0052006F011FE1CE0814A92F90330B3FA83F35B09D3702BB17E4BB3F9040006F003FE0EE0062006F00D
:4002C000FFFD0AE00124784B5C700020774B587006F0F6FD204606F02BF9734B5B78002B40F0CF8401A804A905F034F9002420E0744A04F10A0302EB840152F82300496B23
:4003000009F01EFC014616AB03EB840555F8540C09F014FC45F8540C022C08D1694B196C09F00CFC16AB03EB840343F8540C0134E4B2022CDCD900200B2106F057F96248DC
:4003400006F0E4F8584B9B78FBB9604806F0DEF8534B93E803000790ADF82010090C8DF8221021E016AB03EB840555F8540C09F05BF849A3D3E9002309F0D4F909F08AFB38
:4003800045F8540C0134E4B200E00024022CE9D94F4806F0BBF84F4B93E803000790ADF82010090C8DF822100120002106F01EF9494806F0ABF8019809F036F802460B467F
:4003C0000EA807A90AF08AFB0EA806F09FF80220002106F00BF9414806F098F8029809F023F802460B460EA807A90AF077FB0EA806F08CF80320002106F0F8F8384806F0A0
:4004000085F8039809F010F802460B460EA807A90AF064FB0EA806F079F801200B2106F0E5F8304806F072F82F4E204D0EA83146B5F902200AF052FB0EA806F067F82B4C86
:40044000204606F063F802200B2106F0CFF8284806F05CF80EA83146B5F904200AF03EFB0EA806F053F8204606F050F803200B2106F0BCF81F4806F049F8022006F054F838
:40048000094BDB78002B56D095F90130052B33D0062B42D068E000BF6666666666663940D8C30000F486FF1FEC81FF1F0C81FF1FD086FF1F78C200007CC2000088C200008C
:4004C00094C20000E087FF1FA0C20000A8C20000ACC20000E0C30000B0C20000B4C20000B8C20000BCC20000C4C20000C8C20000CCC20000D4C2000006F0DAFC774B5880CA
:40050000FA2801DDFA225A80744BB3F90230092B2ADC0A22714B5A8026E006F0C9FC6F4B9880FA2801DDFA225A8031281CDC32226A4B5A8018E006F0BBFCC0B2674B5870DE
:400540001B7840B25AB2904201DD644A5370634B93F90130002B02DA0022604B5A705F4B93F9010006F0ACFC0C2005F0E1FF5B4B93F90130072B00F28483DFE803F0040C92
:40058000141C242C40540020014606F02FF8002005F0CAFF75E30120002106F027F8002005F0C2FF6DE30220002106F01FF8002005F0BAFF65E30320002106F017F8002021
:4005C00005F0B2FF5DE300200B2106F00FF8002005F0AAFF55E301200B2106F007F8002005F0A2FF3E4BDB78002B00F04A8301200B2105F0FBFF0D2005F09AFF41E30220DD
:400600000B2105F0F3FF002005F08EFF344BDB78002B00F0368302200B2105F0E7FF0D2005F086FF2DE303200B2105F0DFFF002005F07AFF25E30722284B1A70284B1B789B
:40064000002B6AD00022264B1A70244B93F90130072B5CD8DFE803F0040D232735393D5200231F4A53701D4A5370012005F060FF4DE01C4B93F8483013F0100F47D004F0A2
:4006800031FF194C04232370002005F0D1FB6378002B3CD10022227004F060F837E01348FFF786FD33E002220D4B5A700B4B04221A700020587006F003FC012005F038FF83
:4006C00025E00B48FFF774FD21E00A48FFF770FD1DE00948FFF76CFD19E000BF0C81FF1FEC81FF1F8487FF1FD086FF1FDCC20000E8C20000F0C20000F4C200000322AD4B80
:400700005A700022AC4B5A70012005F011FFA94B93F90130012B40F0B4820020014605F065FFA64805F0F2FE032005F0FDFE0120002105F05BFFA24805F0E8FE0220002164
:4007400005F054FF9F4805F0E1FE0320002105F04DFF9D4805F0DAFE022005F0E5FE00200B2105F043FF994805F0D0FE01200B2105F03CFF964805F0C9FE02200B2105F0C4
:4007800035FF944805F0C2FE03200B2105F02EFF914805F0BBFE022005F0C6FE854BDB78C3B906F085FBC0B2834B58701B7840B25AB2904201DD804A53707F4B93F901302F
:4007C000002B02DA00227C4B5A707B4B93F9010006F076FB784B93F90130072B00F25182DFE803F0040C141C242C343C0020014605F0FCFE002005F097FE42E201200021EE
:4008000005F0F4FE002005F08FFE3AE20220002105F0ECFE002005F087FE32E20320002105F0E4FE002005F07FFE2AE200200B2105F0DCFE002005F077FE22E201200B2194
:4008400005F0D4FE002005F06FFE1AE202200B2105F0CCFE002005F067FE12E203200B2105F0C4FE002005F05FFE0AE2514B1B78002B00F0CE8000224E4B1A704E4B58780E
:4008800043B2042B00F2BF80DFE803F003095C7385000120474B587005F04AFEB3E0012005F046FE0025434B5D7009AC4B4A234607CA03C323F8022B120C1A70484F3E4E47
:4008C0000EA83946B6F906200AF008F920460EA90AF028F920460AF034F9424B1B8823520EA83946B6F908200AF0F8F820460EA90AF018F9204601F087FA0320294605F00C
:4009000075FE394B5B791BB9384805F0FFFD7AE0374805F0FBFD284BD86808F085FD02460B460EA833490AF0D9F8334A09AB07CA03C31A8009A80EA90AF0F4F809A801F0CC
:4009400063FA60E01B4A92F90330B3FA83F35B09D37053B1184BD868284909F0F9F909F0BDFB00B206F0ACFA4DE040B206F0A8FA49E0104A92F90330B3FA83F35B09D37029
:400980002BB10D4BB3F9080006F09AFA3BE040B206F096FA37E0074A92F90330B3FA83F35B09D37063B3044BB3F9060006F088FA29E000BFEC81FF1F0C81FF1FF8C20000FB
:4009C00000C300000CC3000018C3000024C3000030C300003CC3000048C3000054C3000060C3000064C30000D086FF1F68C3000070C3000078C3000080C300000000C842EB
:400A000040B206F05DFAA04B93F90130022B40F038810020014605F0E9FD9C4805F076FD032005F081FD0020082105F0DFFD984805F06CFD0120082105F0D8FD954805F057
:400A400065FD954CE06808F0EFFC02460B460EA892490AF043F80EA805F058FD0220082105F0C4FD8E4805F051FD8E4D0EA82946B4F908200AF032F80EA805F047FD032084
:400A8000082105F0B3FD884805F040FD0EA82946B4F906200AF022F80EA805F037FD7A4BDB78B3B906F004FAC0B26070237840B25AB2904200DD6370774B93F90130002BFC
:400AC00002DA0022744B5A70734B93F9010006F0F7F96D4BDB78002B58D06F4B93F90130032B27D0042B3BD0022B68D106F0E0F909F0DAF86D4909F0DFF9674BD8606C49E4
:400B000009F0E2FA10B16A4A634BDA60624BD868684909F0BBFA10B1664A5F4BDA605E4BD868624909F014F909F0D8FA00B206F0C7F944E006F0BCF9574B1881C82801DD3D
:400B4000C8221A81544BB3F90830132B02DC1422514B1A81504BB3F9080006F0B1F92EE006F0A6F94C4BD880C82801DDC822DA80494BB3F90630132B02DC1422464BDA809E
:400B8000454BB3F9060006F09BF918E006F090F9C0B2414B58701B7840B25AB2904201DD3D4A53703C4B93F90130002B02DA0022394B5A70384B93F9010006F081F9364BE5
:400BC00093F90130042B5CD8DFE803F0030B131B23000020014605F009FD002005F0A4FC4FE00020082105F001FD002005F09CFC47E00120082105F0F9FC002005F094FC8D
:400C00003FE00220082105F0F1FC002005F08CFC37E00320082105F0E9FC002005F084FC2FE00020014605F0E1FC184805F06EFC032005F079FC0220002105F0D7FC1E48F4
:400C400005F064FC104B1B78DBB10F4D01266E700024114B5C70204606F032F9304605F067FC2C700DE00020014605F0BFFC0EA81249054B93F9012009F030FF0EA805F022
:400C800045FC17B0F0BD00BFEC81FF1FF8C200008CC300009CC300000C81FF1F78C30000A4C30000ACC30000B0C300000000C8420000F04100004040B8C30000CCC30000D9
:400CC00008B5012005F034FC0020032105F08EFC064805F01BFC4FF47A7005F0BDFC012005F026FCFFF770FA08BD00BFE8C3000008B505F04FFD3F280AD004D8182817D0F0
:400D000021280DD017E07E2806D084280CD012E0012004F04FFC08BD022004F04BFC08BD082004F047FC08BD202004F043FC08BD05F00CF908BD084B19784B1CDBB2802BBB
:400D400000D10023044A5278D2B2934203D0034A5054014A137008BDF081FF1F0487FF1F064A5378DBB21078984203D3181A8038C0B27047181A0138C0B27047F081FF1F69
:400D800008B505F0F9FC024805F0AAFD08BD00BFF10C000008B505F013FD08BD084A5378DBB212789A4209D0064AD05C0133DBB2812B00D10023024A53707047FF2070473C
:400DC000F081FF1F0487FF1F014B1A785A707047F081FF1F08B5024802F016FF08BD00BFF8C3000008B55D20FFF7D4FFFFF7F2FF08BD00BF08B5024802F006FF08BD00BF90
:400E0000FCC3000008B5024802F0FEFE08BD00BF00C4000038B5054600240AE055F8240002F08AFF012C02D82C20FFF7B3FF0134E4B2022CF2D938BD10B504462420FFF787
:400E4000A9FF204602F0E4FE3D20FFF7A3FF10BD10B50C46FFF7F0FFE0B202F0D9FEFFF7B9FF10BD38B50D461446FFF7E5FF2846214602F0FBFEFFF7ADFF38BD0346324A6C
:400E80001278402A5AD8DFE802F021414959395959592959595959595959315959595959595959595959595959595959595959595959595959595959595959595959595965
:400EC0005959595959595959595951001F4A106818609188927999809A7170471C4A106818609188927999809A717047194A106818609188927999809A717047164A106850
:400F000018609188927999809A717047134A106818609188927999809A717047104A106818609188927999809A7170470D4A106818609188927999809A7170470A4A106893
:400F4000186092889A807047D086FF1F04C400000CC4000014C400001CC4000024C400002CC4000034C400003CC4000010B518B9064802F049FE10BD0446054802F044FEC5
:400F8000204602F045FEFFF725FF10BD44C400004CC4000010B50446064802F035FEE0B202F036FEFFF716FF4FF4FA7005F054FB10BD00BF54C4000010B504461D4802F057
:400FC00023FE601E0A2832D8DFE800F0060A0E12161A1E22262A2E00174802F015FE26E0164802F011FE22E0154802F00DFE1EE0144802F009FE1AE0134802F005FE16E089
:40100000124802F001FE12E0114802F0FDFD0EE0104802F0F9FD0AE00F4802F0F5FD06E00E4802F0F1FD02E00D4802F0EDFDFFF7D9FE10BD5CC4000064C4000078C400008E
:401040008CC40000A0C40000A8C40000B4C40000C0C40000D0C40000D8C40000ECC4000000C5000008B5024802F0CEFD08BD00BF0CC5000008B5024802F0C6FD08BD00BF56
:401080002CC50000F8B5604C002094F83010FFF7DFFE012094F83310FFF7DAFE022094F83110FFF7D5FE032094F83210FFF7D0FE94F848100420C1F38001FFF7C9FE94F876
:4010C00048100520C1F38011FFF7C2FE94F948100620C90FFFF7BCFE0A2094F83410FFF7B7FE0B20A16B0322FFF7BCFE0C20E16B0322FFF7B7FE94F848100D2001F00101E8
:40110000FFF7A6FE94F848101420C1F34011FFF79FFE94F848101520C1F3C001FFF798FE94F848101620C1F30011FFF791FE172094F84910FFF78CFE1820E16C0322FFF7AB
:4011400091FE1920216D0322FFF78CFE1A20B4F85410FFF77DFE1B20A16D0322FFF782FE1E20216C0022FFF77DFE1F20616C0022FFF778FE94F848102020C1F34001FFF7CE
:4011800067FE642600253CE0032D30D8DFE805F0020B15243019C0B21B4B53F824100322FFF760FE23E03019174B03EB8403C0B2D9680322FFF756FE19E0A31D3719FFB2AD
:4011C000114A52F82300114908F076FE014638460322FFF747FE0AE00B4B03EB8403596A301901F10041C0B20322FFF73BFE0134E4B200E00024022CC6D90A36F6B20135C8
:40120000EDB2032DF6D9F8BD8487FF1F0000614500B585B00A4802F0F7FC01A8094904F099F901A8FFF7F6FD3A20FFF7B3FD064B587902F0EDFCFFF7D5FD05B05DF804FB8A
:4012400078C50000E886FF1FD086FF1F10B584B0002427E0204601A900F090FB18B90720FFF784FE33E01B4802F0CEFC062C02D0072C04D007E0184802F0C6FC08E0174893
:4012800002F0C2FC04E004F13600C0B202F0C0FC3A20FFF77FFD01A8FFF7BCFDFFF7A2FD0134E4B2072CD5D90D4802F0ADFC0D4C2046FFF7AFFDFFF795FD0B4802F0A4FC2C
:4012C000E06802F039FDFFF78DFDFFF7A1FF04B010BD00BF80C5000084C5000088C500008CC500001488FF1F94C5000010B5414802F08AFC404B18788B2809D93F4802F0FA
:4013000083FC3D4B18787630C0B202F081FC01E002F07EFCFFF76EFD374CA0793630C0B202F076FCFFF766FD20791130C0B202F06FFCFFF75FFDA078C0F11500C0B202F073
:4013400067FCFFF757FDE0785A30C0B202F060FCFFF750FD6078C0F15E00C0B202F058FCE3797BB1FFF74EFDE079032804D01E2806D0022806D103E03020FFF70BFD01E0EC
:4013800002F046FCFFF73EFD1B4B5B7A102B03D0202B05D05BB907E03320FFF7FBFC06E03420FFF7F7FC02E03520FFF7F3FCFFF729FD114B1B7A1BB13820FFF7EBFC02E0F5
:4013C0003920FFF7E7FC0E4802F01EFC0A4C207D02F01EFC0B4802F017FC206902F0CCFC094802F011FCE068002102F03FFCFFF7F9FC10BD9CC50000E087FF1FA4C50000D2
:40140000A8C50000ACC50000B0C5000038B505460C46074802F0F8FB284602F0F9FB3D20FFF7B8FC204602F0EBFBFFF7D3FC38BDB4C5000038B505460C463E20FFF7AAFC4B
:40144000284602F0DDFB3A20FFF7A4FC2046FFF78DFD38BD10B50446094802F0D5FB204602F0CEFBFFF7BEFC064802F0CDFB5620FFF790FC4820FFF78DFCFFF7B3FC10BD1D
:40148000B8C50000CCC5000070B58AB0A14A07AB07CA83E8070004A8194604F05BF83C20FFF778FC9C4B1B78082B17D007D8012B35D07BB1022B36D0042B2CD058E0202B16
:4014C00025D002D8102B0DD052E0402B2FD0802B4BD04DE0914802F097FB49E0904802F093FB45E08C4B93F90230002B0FDB8D4802F08AFB884B9B7813F0010F03D0302061
:40150000FFF748FC34E03120FFF744FC30E0864802F07AFB2CE0854802F076FB28E0844802F072FB24E0834802F06EFB20E0824802F06AFB784B9B7813F0080F03D03320C1
:40154000FFF728FC14E013F0040F0AD013F0200F03D03120FFF71EFC0AE03020FFF71AFC06E03220FFF716FC02E0744802F04CFB734B93F8346016F001062DD0664B1B7B7C
:4015800063B32EE025466F4A04F10A0302EB840152F82300496B08F0D3FA0AAB03EB840343F8240C022C08D1664B196C08F0C8FA0AAB03EB840343F8240C56B90AAB03EBB6
:4015C000850555F8180C55F8241C08F0B7FA45F8180C0134E4B202E0002400E00024022CD0D91EB1584802F00FFB02E0574802F00BFB04A8FFF70EFC514B93F8343013F08F
:40160000020F0DD0524802F0FFFA02F0DDFA02F0FFFA2C20FFF7BEFBFFF7A2FB02F0F8FA4C4802F0F1FA03F01FFF02F0A5FB2C20FFF7B0FB384B1869002102F017FB01F0F6
:40164000A5FC054603F02AFF044602F0B9FB064645EA0403034313F0FF0F2CD03E4802F0D3FA16B15020FFF795FB8DB115F0010F02D05820FFF78EFB15F0020F02D059201E
:40168000FFF788FB15F0040F02D05A20FFF782FB8CB114F0010F02D05220FFF77BFB14F0020F02D04820FFF775FB14F0040F02D05320FFF76FFB184B1B7B1BB1013B164A07
:4016C000137317E0144B1B7813F07C0F03D01D22114B1A7302E009220F4B1A730E4BDB7A13B901220C4BDA721C4802F08DFA01A8FFF790FB084BDB7A1BB1013B064AD37272
:401700005FE0054B1B7813F07C0F29D01322024BDA7228E0F486FF1FD086FF1FDCC50000E4C50000E8C50000F0C50000F4C50000FCC5000004C600000CC6000014C6000082
:401740008487FF1FE087FF1F1CC6000024C600002CC6000034C600003CC6000044C6000009221B4BDA721B4802F04EFA184CE07902F04EFA2C20FFF70DFB207A02F048FA6E
:401780002C20FFF707FB607A02F042FA02F010FF044600F0D1FA054604B990B10E4802F033FA44B1012C03D15320FFF7F3FA02E04320FFF7EFFA15F0010F02D04620FFF766
:4017C000E9FA3E20FFF7E6FAFFF704FB0AB070BDD086FF1F4CC6000054C60000704700BF08B500EBC00000EBC00000F54070502200F062FA08BD00BF08B5014640F2AE30D2
:40180000502200F059FA08BD08B500EB400300EB830000F500700C2200F04EFA08BD00BF08B500200A2100F03FFA012002495C2200F042FA08BD00BF8487FF1F30B585B078
:40184000054610F0010F35D02E4B0A2283F83020192283F83320002183F8311083F83210012283F83420284A9A63284ADA63284A1A6400225A6483F84910264ADA64264A23
:401880001A65FA20A3F854004FF07E50986583F848102249196059609960DA601A615A611F4A9A61DA611A621E4A5A629A62DA62FFF7B6FF15F0020F0CD00024019402945A
:4018C000039405E0204601A9FFF79EFF0134E4B2072CF7D915F0040F09D04FF44070002100F0E2F940F25130002100F0DDF915F0080F04D040F2AE30002100F0D5F905B0FD
:4019000030BD00BF8487FF1F0AD7233C6F12033B00007A440000C8410000FA4300007A4300A00C47000048C370B504460E4600EBC00101EBC101304601F54071502200F078
:40194000D9F938B90025357020463146FFF748FF284670BD012070BD38B5054640F2AE31502200F0C7F930B900242C702846FFF743FF204638BD012038BD00BF70B505467D
:401980000E4600EB400100EB8101304601F500710C2200F0AFF9F0B93346002403F8014B7470013303F8014B03F8014B03F8014B03F8014B03F8014B03F8014B03F8014B01
:4019C00003F8014B03F8014B1C7028463146FFF71BFF204670BD012070BD00BF08B5002000F05CF90A2806D1054801215C2200F081F910B908BD002008BD012008BD00BF9E
:401A00008487FF1F38B504460D460846002108F03DFB002840F00D81632C35D9643CE4B200232EE0022C22D8032B00F2FE80DFE803F002060B17854B43F82450F5E0834B9E
:401A400003EB8404E560F0E02846814908F080F97F4908F07DF906347C4B43F82400E4E005F10045794B03EB84046562DDE00133DBB2092C40F2DF80042B00F0DE800A3C95
:401A8000E4B2032BCED9D0E0284607F0CDFC05F0EDFE07F0DFFFC0B21F2C00F2D080DFE804F010171B21273849CECECE5A5E6164CECECECECECE758A9DAEB2B5B8BCCECEE7
:401AC000BFC2022840F2BD80604B83F83000ACE05E4B83F83300A8E05C4B83F8310002F055FFA2E0594B83F8320002F04FFF9CE038B1564A92F8483043F0040382F848302C
:401B000093E0524A92F8483023F0040382F848308BE038B14D4A92F8483043F0400382F8483082E0494A92F8483023F0400382F848307AE038B1454A92F8483063F07F034B
:401B400082F8483071E0414A92F8483003F07F0382F8483069E03D4B83F8340065E03B4B9D6362E0394BDD635FE038B1374A92F8483043F0010382F8483056E0334A92F8CC
:401B8000483023F0010382F848304EE058B12F4B93F8483013F0100F55D043F020032B4A82F8483041E0294A92F8483023F0200382F8483039E038B1244A92F8483043F089
:401BC000080382F8483006E0204A92F8483023F0080382F8483001F0C5F926E038B11B4A92F8483043F0100382F848301DE0174A92F8483003F0CF0382F8483015E0134BDF
:401C000083F8490011E0114BDD640EE00F4B1D650BE00E4BA3F8540007E00C4B9D6504E00A4B1D6401E0094B5D64FFF7F9FD002038BD042038BD032038BD032038BD0320F8
:401C400038BD062038BD0A2038BD00BF8487FF1F0000704208B504F065FEFFF7BFFE38B90720FFF783F9FF20FFF7E8FDFFF70AFA08BD00BF18B1012803D102207047012012
:401C800070470420704700BF18B1012803D102207047012070470420704700BF08B580B204F0AEFE08BD00BF08B583B20846194604F03CFE08BD00BFF8B50E4615460024DE
:401CC00011E0630024B914F0800F02D0012300E0012316F8011B0B4403F0FF04471CFFF7E3FF013D3846002DEBD12146FFF7DCFFF8BD00BFF8B5064608461546002411E074
:401D0000471CFFF7CBFF630024B914F0800F02D0012300E00123034403F0FF043070013D38460136002DEBD1FFF7B8FFA04214BF00200120F8BD00BF10B505F09FF808B9D1
:401D4000002400E0012405F0ABF808B144F00204204610BD08B5002005F084F8002005F093F808BD0C4B5B78ABB910B5044610B9FFF7F0FF0BE010F0400F02D0012005F05C
:401D800071F814F0800F02D0012005F07DF80022014BDA7210BD7047D086FF1F08B50020FFF7E0FF08BD00BF064B1B78022B07D010B5044602F0E8FB2046FFF7D3FF10BD1B
:401DC000704700BFD086FF1F10B5084C20460021442208F010FA002004F12801FFF7CEFD10B90720FFF7C2F810BD00BFE087FF1F08B50248024903F0ADFB08BDFC87FF1FEE
:401E0000F486FF1F000000002DE9F04F99B081469E4C20460021402208F0EDF99C4B03CBC4F80100C4F805101B88A4F8093099F80030242B05D1012363700021A1709A464A
:401E400001E04FF0000A1AF0010B08D003238DF85F3000273E4609970797089729E200238DF85F30F5E7A4F14102D2B2192A00F2E187013318A901F8013D484616AA01F006
:401E800007FA002800F0D887DDF85880404607F0CBFA05F0EBFC07F0DDFDC5B2284607F003FF0146404607F049FE7A4907F050FF07F0BAFA05F040FC07F0CCFD80B2472CDB
:401EC00003D04D2C00F0F9805FE15E2D00F2B687DFE815F078007800780078006600B407B407B407B407B4075F00B407B407B407B407B407B407960096009600B000B00097
:401F0000B407B407B407B407B407B4075F00B4075F00B407B407B407B407B407B407B4077800B407D800B407B407B600B407B407B407B407B407B600B407B407B40766007E
:401F4000CE00CE00CE00CE00CE00CE00B407D300B407B407B407B407B407B407B407B407B407B407B407B407B407B407B407B407B407B4077E00B407B407B407B407B407B4
:401F8000B407B407B407B4079B009B005F00AA00AA0028B9089B002B40F05287012308933A4B1D701C2D03D01E2D01D05C2D6BD110B10A2840F046872844344B1870002043
:401FC00002466CE0089B002B40F03E87022308932E4B5D70262D61D1142806D01E2804D0282802D0322840F031872B4BA3FB002305EBD3036433254A5370002001224EE038
:40200000113D224B5D71022249E020B95A3D1F4B1D71032243E00A2840F01A875A2D00F01987002004223AE0C5F15E05174B9D70052234E0C5F11505144BDD7006222EE02B
:40204000089B002B40F00887312D06D100200F4B987108220323089321E00A2840F0FE8601220A4B9A71002008220323089316E0363D064BDD71092211E0002840F0F086C9
:402080000A220CE007220AE0002208E02488FF1FE087FF1F0000C842CDCCCCCC0122002840F0E08646FA02F313F0010F40F0DC86012393401E43B6B2FBE0002840F0D68657
:4020C0001E2D00F2D586DFE815F01F001F001F002C002C002C00D306D30641004100D306D306D306D306D306D306D306D306D306D306D306D306D306D306D306D306D306FE
:40210000D306D306D3061F0015B1012D2DD004E00322A74B1A720B222CE0A54B1D720B2228E0042D08D0052D0BD0032D1FD110229F4B9A720C221DE020229D4B9A720C22A3
:4021400018E000229A4B9A720C2213E0082D02D0092D05D00DE04022954B5A720D2209E00022934B5A720D2204E00B2202E00C2200E00D2246FA02F313F0010F40F07A866B
:40218000012393401E43B6B293E0463C142C00F27386DFE814F01500710671061A0023002C0035007106390071064000710645004A004F007106710671065B0064006D0086
:4021C0007B4BC3F80C8000235AE0794BC3F81080099B43F001030993012351E0744BC3F81480099B43F002030993022348E0704BC3F81880099B43F00403099303233FE0FA
:402200006B4B1D7704233BE0404607F067FF684B1862052334E0664BC3F8248006232FE0634BC3F8288007232AE0614BC3F82C80082325E040465F4907F046FF002840F034
:402240001D865B4B83F83050092319E0584BC3F83480079B43F0010307930A2310E0544BC3F83880079B43F0020307930B2307E04F4BC3F83C80079B43F0040307930C2302
:402280001C4647FA03F212F0010F40F0F98540F2613242FA03F313F0010F06D04046002107F0F4FE002840F0ED850123A3401F43BFB29DF85F3019F80340002C7FF4D3AD1B
:4022C000079B1BB1089B0BB90223089307F020039BB22BB1364B1A6A374B9A4200F3D485BBF1000F14D017F0010F00F0CF85304BDB78012B33D12E4CE06807F095F82AA34C
:40230000D3E9002307F0E4F807F0C4FBE06026E0274B9B78012B07D1089B022B1FD117F0010F00F0B5851AE0244B5B78BBB917F0010F10D01E4BDB78012B10D11C4CE06845
:4023400007F072F818A3D3E9002307F0C1F807F0A1FBE06003E0194B1A69154BDA6007F480739BB21BB9154BDA68114BDA62104B1B78042B08D107F040039BB2002B00F09A
:40238000998527F04007BFB2094B5B7913B1012B1DD015E002230C9301230A934FF0000B1BE000BFAFF3008066666666666639402488FF1F00007F4380969800E087FF1FEF
:4023C00000230C9302230A934FF0010B05E001230C9300230A934FF0020BB14BDB78012B1DD117E048FA04F313F0010F0FD004F10C05AB4B03EB8505686807F015F8A6A33E
:40240000D3E9002307F064F807F044FB68600134E4B202E00024DDF81C80022CE2D9089B032B07D19E4B9B79012B03D1079B042B40F0428513AB9B4A07CA83E8070006F4F3
:4024400000739BB273B1964BD879062800F23685954B9B79984205D013A9FFF78FFA002800F02E858E4B1D780A2D02D05C2D72D0ADE0079B002B00F0258517F0500F00F036
:402480002385874B586A06F0CFFF05F0EFF907F0E1FAC0B2062800F21985814B1B7F142B08D0022B40F0148507F080039BB2002B40F0108527F05007BFB218B10138C3B2BD
:4024C0000B9302E0764BDB790B930B987749FFF755FA002800F000854FF0000937E04C46079B43FA09F313F0010F2CD06C4B1B7F142B21D16C4B03EB890209F10C05AD001F
:402500002B44D069596807F019FBDFF894814544696807F013FB08EB8908C8F81000B9F1020F10D102345E4B03EB84045E4B196C07F004FBA06006E0594B03EB8902526BB3
:4025400003EB89031A6109F101095FFA89F9B9F1020FC4D9D8E0079B002B00F0BF84002430E0079B234113F0010F20D04E4B03EB8403D86918AB03EB840353F8141C07F041
:40258000DDFA04F10C05464B03EB8505696807F0D5FA6860022C13D104F10C05404B03EB8505414B196C07F0C9FA686008E004F10C039B003C4A1A44526839490B445A6078
:4025C0000134E4B2022CCCD900230B939CE0089B032B51D0079B002B49D14DE04C46079B43FA09F313F0010F08D12F4B03EB8903DA692B4B03EB89035A6333E0352D31D047
:40260000274B1B7913BB09F10C084FEA8808264B434418AA02EB890252F8140C596807F08FFA1F4B9844D8F8041007F089FAC8F80400B9F1020F15D10C34194B03EB8404EF
:40264000194B196C07F07CFA60600BE0164A02EB89020C34124B03EB84046068D16907F06FFA606009F101095FFA89F901E04FF00009B9F1020FB1D91E2D03D0352D39D076
:402680001C2D3FD11C2D13D106200849FFF776F9002800F0258412E066666666666639402488FF1F0888FF1FE087FF1F3488FF1F0720AB49FFF762F9002800F01384079B94
:4026C00093B90B9308931FE0079A1A4112F0010F07D1A44A02EB8302D169A34A02EB830211610133DBB200E00023022BECD900230B9309E09C4B5B78012B00F2F583002332
:402700000B9301E000230B93974B5C78502C04D1079B002B40F0EA8397E1089B022B40F0948124B9079B002B00F08A818DE18E4BD868002107F0A0FC002840F0D9838C2C0F
:4027400000F06A8107D8022C13D0032C13D0012C40F07B8108E08E2C00F05E81C0F05A818F2C00F0578170E1079B002B00F06B816BE14AF0040A079B002B00F0BB83D946FC
:40278000012303FA0BF80A9A0F92934048EA0308079B13EA080F00F0AF83734D05EB8B02704C04EB8B03506BD96907F0C7F90D900A9A05EB820504EB8204686BE16907F05D
:4027C000BDF90E9007F080039BB2002B00F09D8027F08007BFB2654865490C2207F0F0FC002800F08B83604BDB78012B0BD15E4CA06A06F019FE58A3D3E9002306F068FEE8
:4028000007F048F9A062584B986A06F00DFE04460D460022574B06F05BFE02460B462046294606F055FE04460D460D99084607F08FFA06F0F9FD02460B462046294606F0F0
:4028400093FC04460D460E99084607F081FA06F0EBFD02460B462046294606F085FC07F019F90446002107F011FC002840F04883204606F0D9FD05F035F8054601F1004492
:402880000D980E9900F0B8FD06F0CEFD02460B462846214606F046FF07F0FCF88046324B5B78032B01D100F100482F4B9C6A2046002107F0EBFB28B108F1004804F100444C
:4028C000294B9C620E98414607F042FA01460D9807F034F9244D09F1020405EB84044FF07C5107F035FAA0600D98414607F030FA0E9907F025F90F9B023305EB83054FF03C
:402900007C5107F025FAA8609FE0099B18EA030F00F0F88227F00E07BFB2134BDB78012B2DD129E0099B2B4113F0010F0ED0AC1C0D4B03EB8404A06806F076FD06A3D3E91D
:40294000002306F0C5FD07F0A5F8A0600135EDB213E000BFAFF3008066666666666639403488FF1FE087FF1F2488FF1FFC87FF1F5888FF1F000010400025022DD2D9964D68
:4029800009F1020905EB89090D98D9F8081007F0D5F880460F9C023405EB84040E98A16807F0CCF80146404600F026FD8046D9F80800A16800F020FD0446A86240462146DF
:4029C00007F0BCF820F00045284606F02DFD804689467DA3D3E9002307F00AF8002834D028464FF07C5107F06FFB002840F08C82204606F019FD76A3D3E9002306F068FD8A
:402A000002460B464046494606F0F2FF002840F07D821AE04AF0100A04F17203DBB2012B01D84AF0080A079B002B00F071826B486B490C2207F0C4FB002800F06B8204E030
:402A40000023089301E0002308931AF0010403D027F021039BB204E027F4487323F001039BB2089A12B123F4E0539BB2002B40F0538210A800210C2207F0BDFBFCB136F0BC
:402A8000490340F04B82544B1B78352B02D0002B40F04682534AD3681193517A137A0B438DF8483010A84C4903F07EFA034620B94A4C4B4A07CA84E80700184633E24A4BD6
:402AC00093F8483013F0020F24D0434B5B78013BDBB2022B01D94AF0400A079B2BB1089B022B02D14AF0800A14E03E4B5B7A102B10D13C4B1B78013BDBB2022B05D81AF0CC
:402B0000400F07D04AF0200A04E01AF0400F01D14AF0200A304B196A324A91619B78537013B108238DF848302B4AD1682D4B19611091D56AD868294607F09EFA10B11AF0E1
:402B4000200F13D0274B587A60B11AF0800F09D11AF0400F03D0002101F0D0FD02E0294601F0CCFD1C4BDA6A1E4BDA601AF0400F02D11C4BDB681193174B93F83010194A0D
:402B80001175527A987A824206D0119901F0B6FD114B9A7A134B5A72124A517A9DF848300B438DF84830137A0B4A507A834221D0FFF7FAF8084B597AC1B90022094B1A72C4
:402BC00018E000BFAFF300807B14AE47E17A743FFCA9F1D24D62503F2488FF1FFC87FF1F5888FF1FE087FF1F8487FF1FA94A137A0B431372A74B1A7A9DF8483013438DF8EC
:402C00004830A54B1B78042B03D1A34B586A03F0FFF8A14A51799F4B1971D2789A70089B032B13D19C4B9B799A4A537113B90022994BDA63984BDD6B964B186C294607F022
:402C40001BFA18B9934B1D6402F06CFC914B9B79914AD279934208D08E4B9A71283313AA07CA83E8070002F05DFC8B4B1979894AD1701B78262B36D006D81C2B1CD01E2BA8
:402C80001AD00A2B07D047E05C2B36D0662B3CD0282B41D12CE00B9D28468049FEF7B4FD7C4B9B79AB4237D17D4B7C4A07CA83E8070002F037FC2FE09DF8483043F00103BE
:402CC0008DF84830089B1BB1764810A902F0B0FE724D284610A902F0ABFE734B95E8070083E8070018E006206F49FEF78DFD13E007206D49FEF788FD0EE06C4B694A07CA54
:402D000083E8070002F00EFC06E0684800210C2207F071FA02F006FC5F4B5B785D4A1370502B46D0089A022A43D1012B05D15D4810A902F07DFE002030E05BB99DF84830B2
:402D400043F001038DF84830564810A902F070FE002023E0023BDBB2012B14D8514B53F80C2C0092CDF804B00A9A02920C9A0392CAF380020492184610A94B4A243B02F0F4
:402D80007FFE00200AE09DF8483043F004038DF84830444810A9524603F06AF828B9424B404A07CA83E8070003E0012801D1FFF71FF8394B187A374BD871002800F0B380C4
:402DC00001F0E2FB334BDB79032B09D1384B1B78022B2AD0082002F0EDFB01F009FB24E02C4B01221A7000221A71DA705A709A715A721A722E4B6422DA711A725A721B7876
:402E0000022B0FD000202649FEF7B8FD002800F0898002F087FB0020002101F045FC0020FEF7A0FF0820FEF7C7F80022194BDA71204678E0012076E0022074E0142072E0B3
:402E4000182070E014206EE018206CE014206AE0142068E0142066E0182064E0142062E0142060E017205EE015205CE017205AE0142058E0152056E0142054E0262052E0DC
:402E8000192050E004204EE01B204CE016204AE0162048E0E087FF1F2488FF1F3488FF1F0888FF1F5888FF1FFC87FF1F1488FF1FD086FF1F1C2036E0252034E01D2032E094
:402EC000072030E01A202EE01C202CE01D202AE0142028E0142026E0072024E01A2022E0072020E007201EE01E201CE01F201AE0162018E01A2016E0202014E0212012E063
:402F0000222010E023200EE021200CE021200AE01A2008E0212006E0242004E0102002E0102000E0072019B0BDE8F08FAFF3008008B5074B1B78012B09D0064B1B7813F07F
:402F4000FF0F04D103F002F8012002F047FD08BDD086FF1F0087FF1F08B503F007FE03F0A5FD08BD08B5074B93F8483013F0080F05D003F0EDFD044803F08AFD08BDFFF7DE
:402F8000EBFF08BD8487FF1F312F000008B503F0D9FD08BDA74B5B78002B40F04A812DE9F04F89B0804605930693079306228DF81C209A464FF000092CE05046FEF75AFE84
:402FC00008AB534403F8100C48FA0AF313F0010F1CD0484606F028FA06460F46964B03EB8A03586A06F020FA0022944B06F070FA04460D463046394622462B4606F0F8FC07
:4030000020B92046294606F045FD81460AF1010A5FFA8AFABAF1020FCFD9874BD3F850B001254FF0030A00E09A4601A8844902F091FA00263446334636E01A4648FA03F115
:4030400011F0010F2ED00136F6B200207C4941F82300794991F84910194111F0010F0ED03DB109F1004008A901EB830141F81C0C13E008A901EB830141F81C9C0DE02DB1BA
:4030800008A901EB830141F81C9C06E009F1004008A901EB830141F81C0C08A90A4412F8102C14430133DBB2022BC6D9304606F099F904F017FC06460F46584606F0B4F94C
:4030C00032463B4606F004FA06F0E4FC594EB471059001A805A900F0D7FB0423337101F0FFFC01F021FBB5B1FFF750FF00230EE008AA1A4412F8102C224206D040FA03F155
:4031000011F0010F01D024EA02040133DBB2022BEED9484B9C7101F0E3FC4A4B1B7813F0340F2CD0474B1C78E4B214F0100F02D0062002F053FC14F0200F02D0072002F0D4
:403140004DFC3DB9FFF722FF10EA080F02D0082002F044FC2DB114F0040F02D0092002F03DFC394B1B7813F0FF0F04D002F0EEFE01F03EF95AE0042002F026FC02E014F047
:40318000070FB0D101F034FC2B4BB3F8540003F063FA95F0010508D0274CA06D2B4906F0D7FD8146D4F84CB004E0234BD3F85890D3F850B00AF1FF33DBB2BAF1000F7FF42B
:4031C00033AF00242DE0254648FA04F313F0010F25D0194B93F84930234113F0010F0FD0154E06EB8403586AB16D06F0A9FC56F8241006F0ADFD06F017F904F055FA0BE0A6
:403200000D4B986D00F1004053F8241006F0A0FD06F00AF904F048FA094B43F825000134E4B2022CCFD90022024B1A7109B0BDE8F08F7047D086FF1F8487FF1F0000F8BF88
:40324000F486FF1FE586FF1F0087FF1F0000A04008B502F08FF9C0B10C4B0122DA701B78082B0BD1082002F0A5F901F0C1F8074B5B7853B9054B1B78002BF6D102F066FEDC
:40328000022002F0ABFB01F0B3F808BDD086FF1F2DE9F04791460B78C218541CC35C2D2B03D1941C5378012706E02B2B03D1941C5378002700E00027002215461646964632
:4032C000303BDBB2092B0FD80135EDB2082D07D80AB1013EF6B20EEB8E0E03EB4E0E07E032B90136F6B203E0FE2B04D11AB9012223780134E4E7002D47D08846824670469E
:4033000006F0CEFC0546002106F0B6FE68B12CE0284606F089F81EA3D3E9002306F0D8F806F0B8FB05460236F6B273B2B3F1FF3FEEDB16F0800F0BD0284606F075F816A3A9
:40334000D3E9002306F0C4F806F0A4FB05460CE073B2002B09DD2846114906F0F9FC0546013EF6B273B2002BF5DC27B105F10045C9F8005001E0C9F80050CAEB0404013CA4
:4033800088F800400120BDE8F0870020BDE8F0877B14AE47E17A843F9A9999999999B93F00002041AFF3008038B50D46104906F0CFFC06F039F804F01BF806F04BFB80B22A
:4033C00011E00C4B5B7893B915B901F011F806E000F01CFD074B9B7813F0020F07D1322003F03AF92046431E9CB20028E9D138BD0000A041D086FF1F38B50C46014606F029
:40340000A7FC05462046214606F0A2FC0146284606F096FB0446204606F006F804F062FA06F038FB38BD00BFF8B505460027002411E055F824603046002106F01DFE40B98A
:403440003046314606F084FC0146384606F078FB07460134E4B2022CEBD9384605F0E4FF04F040FA06F016FB07464FF07E50394606F022FD0646002408E055F824003146F8
:4034800006F066FC45F824000134E4B2022CF4D93846F8BD2DE9F04180460F460E4E002415E057F824502846002106F0E5FD60B958F82400294606F0FFFC20F000452846A9
:4034C000314606F001FE00B92E460134E4B2022CE7D93046BDE8F0819976967E034600B91023581EC0B2704770B504460D4616460846114606F0E8FD28B13046314606F09D
:4035000027FCA06104E02846294606F021FCA061656AA069294606F0D7FD00B1A56170BD0130C0B2102800D1002070472DE9F8435E4C2078FFF7D2FF05466678B04200F0B5
:40354000B38004F10408342303FB00F398441C44E769206A014606F0F3FA616A06F0F8FB04463846214606F091FD00B13C4634234E4A03FB05239C612846FFF7AFFF044687
:40358000864247D1494B93F84433984246D101F08DFA43E02646454F3B1D342505FB04352046FFF79BFF044697F84433984201D101F07CFA34233D4A03FB0623DF69986978
:4035C000394606F059FD20BBD8F814903423374A03FB0628D8F82000014606F0B1FAD8F8241006F0B5FB0146484606F0A9FA80463846414606F068FD30B134232B4A03FBEC
:403600000626C6F8188004E03422284B02FB0636B761A846254B5B789C42BBD1234F78780437342303FB0077FFF77AFF044637E025461E490E1D342202FB04F31E44D7F8BE
:4036400014800B44D3F818904046494606F01EFDB0B1F869014606F073FA396A06F078FB0146404606F06CFA07464846394606F02BFD28B10D4A342303FB04239F61547045
:4036800034220A4B02FB05339869D96906F0F4FC08B1064B5C702046FFF742FF04463746024B1B789C42C3D1BDE8F883F481FF1F044B002283F844231A70012183F84513F0
:4036C0005A707047F481FF1F08B5094B0022C3F84823C3F84C23C3F85023C3F85423C3F85823C3F85C23C3F86023FFF7E1FF08BDF481FF1F10B5094B1A7893F84443A24256
:403700000BD02046FFF70CFF044B5B789C4201D1024B5870014B83F8440310BDF481FF1F034B13F8042B342000FB0230704700BFF481FF1F064B1A7893F844339A4204D04B
:403740003420044A00FB032070470020704700BFF481FF1FF881FF1F10B5074C94F84403FFF7DEFE2378984204D0342202FB0040806910BD002010BDF481FF1F054B93F868
:40378000442393F845339A4201D1012070470020704700BFF481FF1FF8B50446C56A437C13F0010F15D0224B187A05F02BFE1EA3D3E9002305F08CFE06460F46284605F0D3
:4037C00033FE32463B4605F083FE06F063F904461EE013F0040F14D1154BD87905F012FE11A3D3E9002305F073FE06460F46284605F01AFE32463B4605F06AFE06F04AF93A
:403800000546A46A2046294606F040FC00B92C4620464FF07E5106F057FC10B94FF07E50F8BD2046F8BD00BF7B14AE47E17A843FD086FF1FAFF30080F8B50F4B93F844537A
:403840000E4F11E034230E4C03FB05442046FFF7A3FF0646204631463A46FFF745FE2846FFF75EFE05463746034B1B789D42E9D1014BC3F86073F8BDF481FF1F9976967EDB
:40388000F881FF1F000000002DE9F0478CB081468A46BB4EB04618F8045B342202FB05F4A0444046002106F0A6FC9AF8083034446375DAF80420626313F0020F06D0B14ABA
:4038C00006AB07CA83E80700002445E006ABAE4A07CA83E80700F7E7AC4F59F8240057F8241006F035FA05F09FFD03F0DDFE0CAB03EB840646F80C0C56F8183CC01A80EADF
:40390000E072A2EBE0729E4905EB450305EB8303234401EB83035A60342303FB051319698A4238BF0A461A6106F0BEF957F8241006F0C2FA46F8240C002106F0A7FB48B1AF
:403940002046FEF7A1F934238D4A03FB05231A7D104318750134E4B2022CBDD93423884A03FB05231B69002B00F0F98003A8FFF75BFD3423824C03FB05446062844E304622
:4039800003A9FFF787FD2062A6F10C0003A9FFF781FDE062647D14F0010F05D03423784A03FB0523186312E0DAF800003423744A03FB0523186314F0080F08D0342303FB14
:4039C000052303F12C06596A06F0C2F970606C4B1A7893F844339A4202D014F0020F23D03423674A03FB052300229A619A6289E0634B03EB8403D3F854730CAB03EB8406A0
:403A000056F824AC3846514606F0A2F90146484606F094F881465046394606F08FF846F8300C0134E4B202E04FF000090024022CDED9484605F0F8FC06460F464CA3D3E9D7
:403A4000002305F0D5FF30B134234D4A03FB052300229A6256E03046394647A3D3E9002305F0A8FF30B13423454A03FB0523494A9A6247E06846FFF7D7FC454C20466946F7
:403A8000FFF708FD81460020434932463B4605F06BFB06460F463046394600223F4B05F017FD03F01FFF05F0F5FF0646206A494606F04EF9314606F04BF90446304605F0F7
:403AC000B3FC02460B460020334905F04DFB06460F46204605F0A8FC32463B4605F022FE06460F460022002305F064FF20B93046394605F0CFFF00E000203423204A03FB69
:403B00000523986234221E4B02FB05356B7D13F0020F26D14046FFF73FFE0546184C40462946D4F86023FFF7DFFCC4F8605304F5557303AA07CA83E8070004F552730CAA69
:403B400012E9070083E8070094F845032070FFF7E7FC84F84503FFF7E9FC012002E0002000E001200CB0BDE8F08700BFAFF30080E90B21E7FDFFEF3FE90B21E7FDFFEFBF4C
:403B8000F481FF1FF486FF1F3C85FF1F8487FF1F9C87FF1F9976967E0000F03F0000E03F002309E0064A52F82310064A02EB8302C2F848130133DBB2022BF3D9704700BF40
:403BC000F486FF1FF481FF1F064B187893F84433984203D3181A0F30C0B27047181A0138C0B27047F481FF1F08B500F05FFF034B93F844235A70FFF799FC08BDF481FF1F4E
:403C000008B502F015FE08BD08B502F011FE08BD38B563280BD9144BA3FB0023DB0803EB83025200801A3030C4B2D8B200E0002409280BD90C4BA3FB0023DB0803EB8302D5
:403C40005200801A3030C5B2D8B200E000253030C0B2FDF79FF815B12846FDF79BF814B12046FDF797F838BDCDCCCCCC70B584B006460D46002106F009FA20B12D20FDF7E2
:403C800089F806F100462C4606E03046264906F05FF80646023CE4B2012CF6D824B13046224906F055F8064630464FF07C5105F047FF06F013FA002410E0621C1C4BA3FB05
:403CC0000013DB08194603EB83035B00C31A04A80444303304F8103C0846D4B20028ECD106E0631C04AA1444302204F8102CDCB2AC42F6D314D1631C04AA1444302204F879
:403D0000102CDCB20CE0AC4202D12E20FDF742F8013C04AB234413F8100CFDF73BF8E4B2002CF0D104B070BD0000C84200002041CDCCCCCC0000000008B50D4B93F84830D7
:403D400013F0010F0CD005F06FFB07A3D3E9002305F0BEFB05F09EFE0421FFF787FF08BD0321FFF783FF08BD6568E1575128A43F8487FF1FAFF3008008B50D4B93F84830A2
:403D800013F0010F0CD005F04FFB07A3D3E9002305F09EFB05F07EFE0121FFF767FF08BD0021FFF763FF08BD6568E1575128A43F8487FF1FAFF30080704700BF704700BF34
:403DC00008B502F0E1FE08BD08B5FFF7F9FF60B10022064B1A70064B064A07CA83E80700054A137843F04003137008BDE686FF1FE886FF1FF486FF1FE586FF1F08B5FFF751
:403E000099FC10B1022001F0D5FB08BD10B5A14B1B7803F0FF04B3B101229F4B1A7060B2FDF7B8F8013CE4B2012C0AD80120FDF7C3F8102001F0C8FD984B1B7813F0100F69
:403E4000FAD001F0D3FD954B1B7803F0FF04002B00F0118114F0100F03D001228E4B5A7010BD14F0010F04D0FDF70EFB012001F0ABFD14F0E80F6AD0874B1B7813F0030FCA
:403E800053D113F0280F14D0834B9B7813F0C00F0FD100F00BFE804B02221A711B78202B07D114F0800F04D17B4A937863F07F039370794B1B7813B90121774A917014F0E9
:403EC000400F07D013F0200F04D173498A7842F040028A7014F0080F05D013F0E00F02D110226D4B1A7014F0200F1ED00620FDF763F8694B9B7813F0800F11D1664A127835
:403F0000402A08D113F0080F05D003F0E30343F0020361498B70802A02D040225E4B1A705D4A937843F02003937014F0800F0BD0594B1B78012B04D1574A937843F00503F0
:403F400093708022544B1A70E82001F03DFD14F0020F4AD014F0680F44D14F4B1B78402B12D14D4B9B7813F0200F0DD113F0100F03D00022484B1A7006E013F0040F03D048
:403F800043F00803444A9370434B1B783BB113F0100F27D0404A927812F0010F22D0102B07D13D4B9B7A23B143F008033A4A937218E00022384B1A71FFF7BCFB70B1364BB2
:403FC0009B7813F0400F09D1334B00229A7008221A7000F085FD00F0A7FB03E02E4B00229A701A70022001F0EFFC14F0040F42D0294B1B7813F0D00F18D0274BDB78ABB9ED
:40400000254B93F90230002B10DBFFF7EDFD224B1B7913F0020F04D01F498A7842F001028A7023F006031C4A137121E01A4B93F90230002B0ADA0022174B1A71FFF744FB5D
:4040400000F0D6FCFDF7D4FEFFF7AAFD124B9B7813F0200F08D003F07F030F4A43F0010393704023137003E00B4B00229A701A70042001F0A9FC0A4B1B7803F0FF04002B01
:4040800048D001F0C5FC044BDA7914F0010F09D1134608E00087FF1FD086FF1FE586FF1FCC86FF1F642314F0020F01D00A33DBB214F0040F01D00A3BDBB214F0080F01D076
:4040C0000133DBB214F0100F01D0013BDBB2C82B28BFC8230A2B38BF0A234849087A14F0200F01D1014600E0642114F0400F00D0322114F0800F00D019219A4201D18142DC
:4041000008D03E4AD37111720023D372FFF794FBFFF76AFD3A4B1B7803F0FF04002B5AD001F07EFC354B5A7A14F0010F01D1134600E0642314F0020F01D00A33DBB214F092
:40414000040F01D00A3BDBB214F0080F01D00133DBB214F0100F01D0013BDBB2C82B28BFC8230A2B38BF0A239A4207D0234A117941F00801117153720023D37214F0200F3B
:4041800011D01E4B1B78102B0DD11C4B9B7A1BB902221A4B9A7206E013F0010F03D043F00403164A937214F0C00F14D0134B1B7813B113F0180F0ED0124B1C7A14F0400FFF
:4041C00002D004F0BF0401E044F040042046FDF7C9FD0C4B1C720C4B1B7813F0FF0F04D0FDF7FCFA0022084B1A70044B1B7813F0FC0F01D000F074FC10BD00BFD086FF1FFF
:40420000E486FF1FE087FF1F0187FF1FF8B5FFF791FA28B9734B5C7A1A7A1443DD6801E0447C056B704B93F8483013F0020F00F0D380202001F0E2FBCEE06C4A5278002A6C
:4042400040F0CF8013F0010F00F0C480674A127812F0C00F73D013F0040F10D1634E0027B7723846002100F01FFA3846FDF77AFDB37803F0FD0343F00403B370AAE0802AF1
:4042800013D10B20FCF798FE0020002100F00CFA0020FDF767FD00F061FA01E0FFF7B6FD524B5B78002BF9D0F8BD402A07D101F019F920B94D4A937823F0200393704B4B3A
:4042C0009B7813F0080F00F08580464A527AC2B113F0020F15D1444B93F8483013F0020F05D0424A137943F00803137109E004F03000294600F0D8F94FF081400121FFF729
:4043000053F8384B1B7A6BB1384B9B7813F0020F08D104F04000FDF725FD4FF07E500121FFF742F8314B9B7813F0020F52D143F010032E4A9370022001F03CF94AE02B4B63
:404340009B7A002B37D013F0020F0ED0254B5B7A3BB10020002100F0A7F90122234B9A7238E00022214B9A7234E013F00C0F31D01C4B5B7A9BB10A20FCF71EFE1A4B93F8CF
:40438000483013F0020F05D0184A137943F00803137104E004F03000294600F085F9134B9B7A13F0080F02D0022001F003F900220E4B9A720EE00D4B1B7913F0080F09D045
:4043C00004F03000294600F06FF9084A137923F008031371FFF71AFD044B9B78002B7FF42CAFF8BDE087FF1F8487FF1FD086FF1F08B5FFF70BFD074B9B780BB1FFF706FFBC
:40440000054B1B7823B1FBF7DFFE0022024B1A7008BD00BFD086FF1FCD86FF1F38B5554B93F8483013F0080F08D0FEF7AFFD28B10122514B1A700720FCF7BEFD4E4B1B784E
:4044400013F0810F08D00220FCF7B6FD01224A4B1A7000252C467FE00022474B1A7001F041F830B1454A137843F020031370FFF7BFFF434801F038F8EBE70A2801D00D282B
:4044800037D1FFF7B5FF3C4B5B78002B70D100223B4B5A5514F0010F05D00B20FCF766FD00252C4650E0364B1B782BB90020FCF75DFD00252C4647E0242B07D1304801F049
:4044C00083F8FCF753FD00252C463DE02A4B1B7813F0210F05D00920FCF748FD00252C4632E02748FDF790FCFCF740FD00252C462AE03CB1292827D114F0020F24D004F03D
:40450000FD0421E020281FD92F281DD0282802D144F0020418E03B2802D144F0040413E04E2D02D944F001040EE0A0F16103DBB2192B05D86B1C2038114A5055DDB203E0CA
:404540006B1C0F4A5055DDB20E4B1B7823B1FBF73BFE00220B4B1A70FCF720FCFF288CD1FFF74CFCFFF744FF034B5B78002BF3D038BD00BF8487FF1FD086FF1FE586FF1F47
:404580005885FF1FCD86FF1F08B5FFF737FCFFF72FFF064B5B783BB9FFF7CCF80028F6D1024B1B78082BF2D008BD00BFD086FF1F08B502F077FB034628B102F06BFB08B1A3
:4045C000022300E00123184608BD00BF08B5002002F000FB08BD00BF08B502F041FBFFF7F5FF08BD08B502F0F5FA08BD0000000070B50646284B587A04F004FF24A3D3E935
:40460000002304F065FF04460D46304604F00CFF22462B4604F05CFF05F03CFA06461F4B5D6C1C6C2846214605F044FD20B93046214605F03FFD18B1174B1C61FF2070BDAD
:404640003046294605F02CFD68B13046002105F013FD20B10022104B1A61002070BD0E4B1D61012070BD0C4B1E613046294605F065FA002105F06CFB04F0D6FE02F088FF7A
:404680000022074B04F072FD05F0E4F9C0B270BD7B14AE47E17A843FD086FF1F8487FF1F0000F03FAFF3008038B5124B5B78FBB904460D4628B900220E4B1A61FFF786FF62
:4046C00013E0102814BF0020012002F0D7FA0A4B93F8483013F0020F02D0202C00D100252846FFF785FFFFF77DFF0022014BDA7238BD00BFD086FF1F8487FF1F38B5064B95
:404700001B78022B07D00C460546FFF73DFF28462146FFF7C9FF38BDD086FF1F0130C0B2052800D10020704708B5012002F032FA084A92F828309373074B93F83030023BEF
:4047400003EB4303DB00DB085B42537302F026FB08BD00BFA885FF1F8487FF1F08B502F0BDFA00220D4B83F829200D4B93F83300FF2808D10B4B1B7813F0FF0F03D10A4BFC
:404780001B78802B05D1084B1B78042B01D001F063FF002002F0FEF908BD00BFA885FF1F8487FF1F0087FF1FD086FF1F10B502F0AFFA724B93F8293013F0FF0F40F0DC80F4
:4047C0006E4CE07B02F044F9A07B02F02DF9012384F8293002F0E2FA636A002B47D194F82B2094F82A30934234D094F82B2004F12C0303EBC2036362588802F08FFA626A3B
:404800001388A383A17F137999420CD0A37704F15C0003EB83039B0003442362DB685B08A36063602360554B196A0C7C93F8C0006040D87308685479E040186148685479EB
:40484000E040586189685079C14099619079FFF7C9FE0CE0FFF782FF484B1B6A5B7C13B10020FFF7BFFE042000F0A4FE10BD444B1B78DBB2012B01D1FFF7A6FA3F4900238A
:404880008B730A690B681A440A600B6AD9688A4212D93A4901208873D868121A0A601A7C12F0010F04D037490A68013A0A6003E034490A6801320A60304948694A680244C6
:4048C0004A60D9688A4214D92C49887B40F002008873D868121A4A601A7C12F0020F04D028494A68013A4A6003E026494A6801324A60224988698A6802448A60D9688A4268
:4049000014D91E49887B40F004008873D868121A8A601B7C13F0040F04D01A4A9368013B936003E0174A936801339360164B1B78042B05D1144B9979104A937B0B40937303
:404940000E4A938B013B9BB2938363B9536292F82B300133DBB282F82B30062B03D10022064B83F82B20054B997B93F828204A409A73002283F8292010BD00BFA885FF1F0D
:40498000E686FF1FF486FF1FD086FF1F38B5164B002483F8284083F8C04022E0134B93F831302546234113F0010F08D02046FDF761F90D4A92F82830184382F828000B4B4B
:4049C00093F832302B4113F0010F08D02046FDF75BF9054A92F8C030184382F8C0000134E4B2022CDAD938BDA885FF1F8487FF1F10B5FFF7B3FE274C0023C4F8C430C4F8E4
:404A0000C830C4F8CC30C4F8D030C4F8D430C4F8D830C4F8DC30C4F8E030C4F8E430C4F8E830C4F8EC30C4F8F030C4F8F430C4F8F830224642F8043B6360043242F8043B83
:404A400042F8043B42F8043B42F8043B42F8043B42F8043B42F8043B1360C4F8FC3084F82B3084F82A30012284F8002184F82930FFF78CFF94F8C030E37394F8280040F08C
:404A8000070001F0D1FF94F8C00040F0070001F0DFFF10BDA885FF1F08B501F0CBFF024802F0AAF908BD00BFAD47000038B50A4BD3F8FC507DB11C4693F8C53043F0010355
:404AC00084F8C530D4F8E000014605F041F968610023C4F8FC3038BDA885FF1F00000000B44B1B7913F0010F00F0AB847047B24BD3F8FC30002B40F0D981AE4B1B7913F05A
:404B0000040F05D0FEF70CFEAB4BC3F8FC0004E0FEF710FEA84BC3F8FC00A74BD3F8FC40002C00F09A8493F8C53013F0010F04D00022A14B83F8C52073E09F4D95F8C400B8
:404B4000FFF7ECFD85F8C40005F15C0200EB800080000244C5F80421237C1374002306E054F82310C90042F823100133DBB2022BF6D9E368DB00D360E06805F091F88E4D13
:404B8000C5F8CC00216A05F097F90146C5F8D0008A4805F091F9C5F8D4000023C5F8C830844B1B7913F0020F04D195F8C53013F0080F0FD0804DD5F8E810C5F8E01008467A
:404BC00005F0C6F8606195F8C53023F0080385F8C5300AE06469204604F026FC02F082FE04F058FF744BC3F8E000734BD3F8044100236374724B93F8483013F0020F10D069
:404C00006D4BD3F8FC305A7C12F0200F09D04FF07E50D96A05F050F9674BC3F8F40001236374654B0022C3F8DC20D3F8FC40E6694FF07C50314605F03FF905465D4B1B79E6
:404C400013F0020F31D002225B4B83F8D820276A64692046294605F07BF80146384604F06DFF0546002105F011FAB8B13046314604F066FF0146384605F06AF8014620463E
:404C800004F05CFF0446204604F0CEFB02F02AFE04F000FF484BC3F8E80002E1464BC3F8DC500022C3F8E820FBE0434A002182F8D810216AC2F8EC1013F0040F03D000247C
:404CC000C2F8E8400CE0FEF747FD0446204604F0ABFB02F007FE04F0DDFE374BC3F8E800354ED6F8FC00FEF757FD8246014605F02FF80746D6F8FC60D6F820B0D6F8148040
:404D00004046214604F01AFF294605F021F80146584604F015FF4FF07C5105F019F881463846414605F0B2F900284BD04046394604F004FF294605F00BF80146584604F012
:404D4000FDFE1D4BC3F8EC00002105F0A9F900B3194C022384F8D8307569F069014604F0EFFE316A04F0F4FF0146284604F0E6FE0546284604F058FB02F0B4FD04F08AFE23
:404D8000C4F8E80094F8C53043F0080384F8C53087E03846214604F0D1FE294604F0D8FF054BC3F8F000C3F8E4A0032283F8D82077E000BFD086FF1FA885FF1F0000A03F50
:404DC0008487FF1F4846002105F07EF9002860D05846494605F078F9002855D03846214604F0ACFE294604F0B3FF0146AE4BC3F8F000484605F068F9E8B1AB4BC3F8E4A002
:404E000074692046394605F037F920B10122A64B83F8D82045E03846214604F08FFE294604F096FF0146A04CD4F8EC0004F086FEC4F8EC0035E09C4DC5F8EC90C5F8F09031
:404E4000F06904F0F1FA02460B4604F08FF906460F46484604F0E8FA02460B463046394604F036FB06460F46204604F0DDFA02460B463046394604F079F902F033FD04F051
:404E800009FEC5F8E4000CE00222874B83F8D82007E0854B0022C3F8EC20D3F8E820C3F8E420824A137943F0080313717E4B93F82A20079293F8C41003EBC20282F83010A7
:404EC000D3F8FCA0DAF8202006921046D3F8D41004F034FE0390002105F0D8F808B100230393DDF81890DFF8CCB100230193CDF808B06D4B93F8D830012B00F0DD80002B97
:404F000064D0032B40F0FA80DAF81C00594604F01FFF8046644CD4F8E06004F085FA0022634B04F0D5FACDE90401304604F07CFADDE9042304F018F9CDE90401584604F064
:404F400073FADDE9042304F0C3FA04F0A3FD05464846294604F0F2FD0746D4F8EC904846394605F0B1F820B92846002105F098F818B30698494604F0E1FD04F055FA0246E5
:404F80000B4604F0F3F804460D46474FD7F8E4803046414604F0D4FD04F046FA02460B462046294604F0BEFB04F074FD8346012387F8D830C7F8E08009E13046414604F077
:404FC000BDFD394BC3F8E000B94600E1DAF81C00594604F0BDFE8046334FD7F8E06004F023FA0022324B04F073FA04460D46304604F01AFA22462B4604F0B8F804460D461F
:40500000584604F011FA22462B4604F061FA04460D46484604F008FA22462B4604F0A4F804F038FD8146D7F8EC703846494605F04BF888B30698394604F080FD04F0F4F917
:4050400002460B4604F092F804460D46DFF85890D9F8E4803046414604F072FD04F0E4F902460B462046294604F05CFB04F012FD83463846D9F8F01004F0FEFF18B10222A5
:4050800089F8D82003E00122074B83F8D820064BC3F8E080B9469AE04046314604F050FD014BC3F8E00092E0A885FF1FD086FF1F0000E03F3EC32E39AD4CD4F8E46030466B
:4050C000594604F045FE0146484604F037FD0546D4F8F0402046294604F0F6FF002875D04846214604F02AFD314604F0E5FE834602229F4B83F8D820A14668E0DAF81C00A6
:40510000594604F025FE0546994BD3F8E0402046294604F0D9FF002834D0284604F084F90022944B04F0D4F906460F46204604F07BF932463B4604F017F806460F46584687
:4051400004F072F932463B4604F0C2F906460F46484604F069F932463B4604F005F804F099FC0646824BD3F8DC00314604F08EFF40B12046294604F0E1FC7D4BC3F8E0007E
:40518000B14624E07A4DD5F8DC804846414604F0D5FC04F049F902460B4603F0E7FF06460F46D5F8E8902046494604F0C9FC04F03BF902460B463046394604F0B3FA04F0A3
:4051C00069FC8346C5F8E090C14600E0A9460198594604F0B5FC0190029904F057FF28B10298019904F0AAFC834613E04846039904F06AFFB8B1029804F016F95AA3D3E982
:40520000002303F0B3FF04F045FC0290019904F095FC8346564BD3F8DC00494604F036FF00287FF466AE524BD3F804315B7C23B9514A127912F0080F26D09AF8112012F0FE
:40524000300F15D0DAF830405BB1494BD3F8E000D3F8F41004F07CFD0146204604F078FD04462046FFF7C4F9414B83F8F80006E00022414B1A6100223D4B83F8F8203E4AF5
:40528000137923F008031371394E96F8F830079A06EBC20888F83230D6F8D000494604F057FD054604F0C0F802F0A2F804F0F2FB0446D6F8CC0004F0B7F802F099F804F06E
:4052C000E9FB0646214604F039FC04F02DFF87B2A8F82C704FB9284B1B7913F0020F04D043F00103244A1371B7E0214BD3F8C800019904F025FC80463046294604F01EFC3B
:405300000146404604F0D8FD06461C4904F020FD04F08AF802F06CF804F09CFB40F6B733984207D8124B079A03EBC203002283F8312035E041F26F73984207D80C4B079A6B
:4053400003EBC203012283F8312020E042F6DF63984215D8064B079A03EBC203022283F8312014E0AFF30080A5E2ECC367D8253FA885FF1F0000E03FD086FF1F50A9AB4EF6
:40538000374B079A03EBC203032283F83120344B079A03EBC20393F83120D04097409F85B0F5803F05D22E4B079A03EBC203D88506E02B4B079A03EBC2034FF6FF72DA8542
:4053C000274A92F8003182F82A300133DBB282F80031062B03D10022214B83F80021204FD7F8FC30C3F82090C7F8CC402046294604F0A4FB314604F0ABFCC7F8C800D7F8A2
:40540000DC00494604F038FEF0B14846002104F05BFE28B1134A137943F0010313711CE0104B1B7913F0040F04D043F001030D4A137112E000220A4BC3F8FC20FEF75AF94E
:4054400002E02DE9F04F89B0054A92F82B30DBB292F8002193427FF44AAB09B0BDE8F08FA885FF1FD086FF1F054B1B7813F07C0F03D0044BD3F8E00070470020704700BFEC
:40548000D086FF1FA885FF1F08B5034801F032FB01F04AFB08BD00BFA554000008B501F03DFB08BD08B5FFF7F9FFB0B110F0010F02D000F04BFD10E010F0040F05D0084A59
:4054C000137843F00203137007E010F0020F04D0034A137843F00803137001F019FB08BDE586FF1F0020704738B50546002416E020462946FCF718FA30B900232B70284696
:405500000721FBF797FF08E02B7833B12846FCF77BFC01462846FBF78DFF0134E4B2012CE6D938BD08B5FFF72FF80022014B1A7308BD00BFD086FF1F10B50C4650F8210048
:4055400004F0B2FB024B53F8241004F0B5FC10BD8487FF1F70B506460D46002407E028462146FFF7E9FF46F824000134E4B2022CF5D970BD70B50646002410E056F8245004
:405580002846002104F0A0FD68B9094B03EB84032846596A04F07AFD38B90134E4B2022CECD9002070BD012070BD012070BD00BF8487FF1F72B6034B1A781043187062B6CA
:4055C000704700BFE586FF1F70B584B0044601238DF80F304378432B1ED003D84BB1242B5ED119E04A2B08D0582B15D0472B57D112E0FBF73FFD0025E1E1AA4B1B7813B11A
:40560000202B40F0A181A3783D2B40F09F812046FCF7FAFB0546D2E1A378002B40F098816378432B15D002D8242B05D092E1472B0BD0582B22D08DE19A4B1D7815F01805B4
:4056400040F08A81FBF71EFDB9E1FBF74FFE0025B5E1944B1D78022D06D100F077FC0520FBF7AAFC0025AAE1002D40F0778102228C4B1A700420FBF79FFCA0E1894B1B7891
:40568000012B40F06D81FFF72DFF0546002840F069810320FBF790FC0022824B1A708EE1804B1B78012B00F25F816278233A302A00F2FC80DFE812F03100FA00FA00FA0025
:4056C000FA00FA00FA00FA00FA00FA00FA00FA00FA00FA00FA00FA00FA00FA00FA00FA00FA00FA00FA00FA00FA00FA00FA00FA00FA00FA00FA00FA00FA00FA00FA00FA006A
:40570000FA0039008600FA00FA00FA00FA00D500FA00FA00FA00AA007500A378002B40F02581FBF793FD002549E15F4B93F8483013F0100F00F01C81FFF7D4FE0646002861
:4057400040F018810422574B1A70A37813B900F06FFB15E0E278002A40F00E81592B08D05A2B0AD0582B40F00981012000F060FB06E0022000F05CFB02E0042000F058FB99
:40578000484B5D78002D40F0FB8000221A70FEF7E5FFA378002B40F012812046FFF7A4FE0DE1A3784C2B40F0ED80E378502B40F0EB802379002B40F0E9808020FFF7FAFEA1
:4057C0000025FCE002238DF80F30A3783BB92046FCF7C2F82046FBF73DFE0025EFE003238DF80F30A3783D2B40F0D2809DF80F30DA1EE15CA1545A1C8DF80F20E35C002B95
:40580000F4D12046FBF7F8FF0025D8E0A378532B40F0C080E378542B40F0BE8023793D2B40F0BC80A379002B40F0BA806379242B05D02A2B0BD0232B40F0B48003E001201F
:40584000FBF7FCFF06E00220FBF7F8FF02E0FF20FBF7F4FF0920FBF7AFFB00F077FB0025ADE002228DF80F20A27882B114E028462146FCF759F818B90720FBF777FB03E01A
:4058800028462146FBF7C2FD0135EDB200E00025012DECD9002592E0002B40F08580012505E000BFD086FF1F8487FF1F002520460DF10F0102AAFDF7EBFC002876D09DF814
:4058C0000F20531CDBB28DF80F30A25C3D2A6FD1EDB19DF80F20D11AA05C6054511C8DF80F10A25C002AF4D12046FCF78DFA0546002864D1029803F097FD01F0B7FF04F0D5
:40590000A9F8C0B22146FBF76BFF002557E020460DF10F0101AAFDF7BBFC00284AD09DF80F30E35C002B47D1029C2046254904F0CBFB002842D1204604F0F6FBC0B2019915
:40594000FCF760F805463AE0082538E0032536E0032534E0002532E0082530E008252EE000252CE00D252AE0082528E0032526E0052524E00D2522E0032520E003251EE089
:4059800035461CE003251AE0032518E0032516E0032514E0032512E0032510E003250EE003250CE003250AE0082508E0022506E0032504E0022502E0032500E003252846B1
:4059C00004B070BD00007F4372B6034A137823EA0000107062B67047E586FF1F72B6024B187062B6704700BF0087FF1F72B60022014B1A7062B670470087FF1F72B6034BE5
:405A00001A781043187062B6704700BFE486FF1F72B60022014B1A7062B67047CC86FF1F72B60022014B1A7062B67047E486FF1F38B504460D46104B93F8483013F0200FF3
:405A400005D00E4B1B78202B01D0FDF701FC0B4B1B78022B0ED0FEF7CBFC084B5B784BB9FDF78CFE10B1FEF7C9F9F4E720462946FDF70AFF38BD00BF8487FF1FD086FF1F8A
:405A80002DE9F04F91B00F900591154608921E469DF86C709DF870409DF874100991BB0002EB030B06EB030956F8278052F82700414604F045F80690A3002A461D44F31873
:405AC0000D9356F8246052F82400314604F038F8079008F100429246009206F100460F9B53F82700069904F029F880460F9B53F82400079904F022F804465046214604F01A
:405B000027F907463046414604F022F90146384604F014F807465046414604F019F980463046214604F014F90146404604F008F80446384603F078FCCDE90201204603F011
:405B400073FC02460B46DDE9020101F0C9FE03F0A1FF80469DF87830A3B103F065FCCDE902019FA3D3E9002303F038FFF0B1DDE902019DA3D3E9002303F0F6FA03F08AFF72
:405B8000804613E003F050FCCDE9020198A3D3E9002303F019FF48B1DDE9020192A3D3E9002303F0E3FA03F075FF8046404603F03BFC0022924B03F08BFCCDE902011A98A8
:405BC00003F032FC02460B46DDE9020103F080FC824621F000441A98014603F0B1FF894BDF6B394603F0AAFF0146384604F0B0F80746384603F018FC01F074FE02460B4692
:405C00005046214603F08EFD01F0C2FC03F022FF1FFA80FABAF1000F00F0DA80059B1C7A14F0080F0BD0504604F03EF80146059F386804F08DF8386024F008043C725046A3
:405C400004F032F804464046214604F035F980460E900899099A01EB82070F9B1846134650F8220051F8231003F068FF214604F023F909904046414604F06AF801464FF0F6
:405C8000804003F05BFF0446404603F0CDFB5AA3D3E9002303F01CFCCDE90201204603F0C3FB0022584B03F061FA02460B46DDE9020103F00DFC03F0EDFE0A9020464FF007
:405CC0007C5104F045F80B904FF0000801242B464D4699467AE0B8F10B0F21D800980A9904F036F8029030460B9904F031F80146029803F025FF029000980B9904F028F8A6
:405D0000009030460A9904F023F80146009803F015FF009008F101085FFA88F8029E3BE0204603F0C1FF0E9904F012F803F07CFBCDE9000101F0E4FB03F0ACFE8046DDE9C7
:405D4000000101F049FD03F0A5FE02902E6806F100463046CDF83080414603F0F9FF00900D9BD3F800804046029903F0F1FF0146009803F0E5FE00900298314603F0E8FFDC
:405D800006460C98414603F0E3FF0146304603F0D5FE06464FF000080698009903F0D0FECBF800000798314603F0CAFEC9F800003868099903F0C4FE386008980599FFF771
:405DC00037FE124B5B783BB90134A4B2544582D30F980599FFF72CFE11B0BDE8F08F00BF8DEDB5A0F7C6A0BE182D4454FB2119408DEDB5A0F7C6A03E4BDA7D5C5555C53F76
:405E00000000E03F8487FF1F00001040D086FF1F064B1B78022B08D010B50446FEF7B4FB20460021FDF7C0FA10BD7047D086FF1F10B50446FDF790F81CB12046FDF7AAF839
:405E400008E00420FDF7A6F80120FDF7A3F80220FDF7A0F8FEF7CCFA044B5B782BB9FBF7C7FFFDF79DFEFDF77DF810BDD086FF1FF8B5324B1B78022B59D016460D46044668
:405E8000FEF782FB2D4B5B78002B52D106F01007FFB20022294B5A71C6F3C000FDF78EFFFDF78EFF48B10420FFF798FDFEF7A0FA0020FDF783FF0220F8BD20462946FFF7CE
:405EC000B7FD01221E4B1A700220FFF773FBFEF78FFA1A4B5B7873BB184B1B78002BF6D1174B1B78DBB2012B0AD12FB1154B164A07CA83E8070006E00520FFF76FFD02E0CB
:405F000001220E4B5A7100200D4B1870FDF756FFFEF76EFAFEF76CFDFDF7D6FBFDF740FEFBF776F9054B587930B10120F8BD0020F8BD0220F8BD0220F8BD00BFD086FF1F30
:405F4000E686FF1FE886FF1FF486FF1F08B5134B1B7813F0100F20D11020FFF72BFBFEF735FBFBF7F7FE0E4B1B7813F02C0F04D10B4A127912F0060F0FD0042B08D1094B29
:405F80001B7813F0FF0F06D10620FFF727FD02E00320FFF723FDFEF7E1FB08BDE586FF1FD086FF1F0087FF1F38B504460D46CB680360037A43F004030372114B93F8483028
:405FC00013F0200F04D001F13400FFF7D3FA90B905F134002146FFF72BFD0A4B1C7864B9FDF7A8FB50B12022064B1A70FEF778FDFEF79AFB02E00F2400E00024204638BD97
:406000008487FF1FD086FF1FFEE700BF08B5094B1A681044084BC31AB3F5007F02DC054B186005E004F0A0F80C2303604FF0FF32104608BD1C81FF1F7089FF1F08B5104EC0
:40604000104D16E029686B68AC68002204E051F8040B43F8040B0432A242F8D1E868002203E0002143F8041B04328242F9D11035013E002EE6D104F07DF8FAF703F8FEE793
:40608000010000006CCA000008B5124A124B1A60124A136843F40073136000230AE0032B03D80F4A52F8231000E00E490E4A42F8231001332F2BF2D90C4B1A780C4B1A70BA
:4060C000094A0C4B1A6000F0CFF800220A4B1A6008BD00BF0004FA050CED00E014ED00E000000000096000000080FF1FBC7600400481FF1F08ED00E00081FF1FFEE700BF5F
:40610000F0B40022174611E050F82760F3B226F0FF0608E001EB420511F812406D78A5550132013BDBB2002BF4D10137232FEBD9F0BC7047064B1B78DBB203F00701054A0F
:4061400011701B09013213704422034B1A707047CF0100496E5800407658004008B50A46002104F048F808BD38B513222F4B1A8018232F4A13701925023215800232137050
:406180005F2102321180023213706322294B1A801B2329490B7002310A80284A13707C2102321180023213700222254B1A7008224FF040231A70032103F500731970214B62
:4061C0001B78DBB220490B70204B1A8041F25122023B1A8000240CE01D4B1B7803F0010343EA440404F003044FF4F07000F04CFF013D0DB1032CEFD115B90320FFF77EFF7A
:40620000144B4FF480721A8007221A70002212490A704820023108701A700222033B1A700E4A137843F03F03137038BD80400040824000408C4000408E40004092400040FF
:406240000043004008010049A146004022420040254200400440004006400040A243004008B503F0BDFF08BD38B572B6344A137843F00403137000240CE0324963001A197B
:4062800052000A4423445B00C8589188FFF766FF0134E4B2062CF0D94FF090402A49FFF72FFF2A4A137843F0020313701032137843F002031370264C237843F04003237024
:4062C000A2F58632513A137843F010031370214821490822FFF7C4FF204821490A22FFF7BFFF204820490A22FFF7BAFF1F4820490A22FFF7B5FF1F481F490822FFF7B0FF18
:406300001E481F490822FFF7ABFF84221D4B1A701D4A137843F0080313701C4D61232B70FFF722FF81232B700122194B1A70FFF701FF184821460E22FFF792FF38BD00BF63
:40634000E846004058C600009000004803500140A043004002510040C4090048C0510040CC090048F0510040D809004810510040E409004822510040F009004832510040B5
:40638000F8090048DB180140224300400048004004000840B043004010B50B4C237803F09F032370237803F0F00323702378184340F010002070012000F064F9237803F0FF
:4063C000EF03237010BD00BF3051004038B505460E4C237843F020032370237803F0BF032370002000F04EF9237803F0F003237023781D4345F010052570012000F042F941
:40640000237803F0EF03237038BD00BF3051004070B5354B1A7802F08002D2B21A7033490A7802F0F00242F00F020A7001310A7802F0F0020A7001310A7802F0F0020A7058
:406440001A7802F0DF021A701A7842F040021A704FF4CA76002000F015F9234D2B7843F010032B70012000F00DF9214B1C78E4B22B7803F0EF032B70002000F003F904F038
:406480000804E4B22B7843F010032B70012000F0F9F82B7803F0EF032B7014B90A2000F0F1F8013E0CB1002ED4D10F4A137803F0BF031370137803F08003DBB21370023291
:4064C000137803F0F00313700132137803F0F00343F00F0313700132137803F0F00343F00F03137070BD00BF30510040325100403151004010B50446FFF78AFF2009FFF7F1
:4065000065FF04F00F00FFF761FF10BD38B505460078012404E0FFF7EDFF285D0134E4B20028F8D138BD00BF08B5FFF7E3FF08BD10B50446FFF76CFF2009FFF72DFF04F038
:406540000F00FFF729FF10BD08B5282000F084F80320FFF721FF052000F07EF80320FFF71BFF0F2000F078F80320FFF715FF012000F072F80220FFF70FFF052000F06CF8E3
:406580000620FFF7D5FF0E20FFF7D2FF2C20FFF7CFFF0820FFF7CCFF0120FFF7C9FF0C20FFF7C6FF0320FFF7C3FF052000F054F8014800F039F808BD84C6000008B50C2099
:4065C000FFF7B6FF0122014B1A7008BDB086FF1F08B5054B5B7823B9FFF7B6FF0122024B5A70FFF7EBFF08BDB086FF1F08B5032819D8DFE800F002070D1381F08000FFF7A4
:4066000097FF08BDA1F14000C0B2FFF791FF08BDA1F16C00C0B2FFF78BFF08BDA1F12C00C0B2FFF785FF08BD38B50546FFF7F0FE4020FFF77DFF002404E0285DFFF75AFF82
:406640000134E4B23F2CF8D9FFF7E2FE8020FFF76FFF38BD01BE704710B5044605E0084B186800F011FDA4F50044B4F5004FF6D8034B586800FB04F000F006FD10BD00BFEA
:406680002081FF1F08B5034B1B7A03FB00F000F0FBFC08BD2081FF1F70B504460E46074B1D681F2802D90020FFF7D4FF04F01F04103455F8240045F8246070BD08ED00E0EE
:4066C00038B504460D46072902D90020FFF7C2FF1F2C02D90020FFF7BDFF04F01F0000F1604000F564406D01EDB2057038BD00BF08B572220B4B1A702022FD3B1A7000206E
:406700000949FFF7C9FF00200721FFF7D9FF0622064B1A70472210331A7002224D331A7008BD00BF84650040556800002664004010B500F0B1FC04460D4A137843F02003B4
:406740001370FD3A137843F010031370043A137843F0100313700123064A1360A2F5C072136000F0CBF8204600F09AFC10BD00BF9465004080E200E008B5054B1B7823B934
:40678000FFF7B6FF0122024B1A70FFF7D1FF08BDB286FF1F084B1B78DBB213F0200F06D0064A1078C0B213F01E0F02D17047002070470020704700BF676400404765004070
:4067C000164B99785B78DBB2994205D25A1E914214BF0022012204E0CA1AFE2A14BF00220122002AECD18B4207D10D4B1B7813F0040F02D10B4B18707047FF2900D100219B
:40680000094B58540131054B9970054B1B7813F0020F02D00122054B1A607047B286FF1F63640040436400406488FF1F00E200E038B5074B1B782BB938BDFFF7C1FF0134BA
:40684000A4B201E005460024285D0028F5D138BDB286FF1F13E0104B1B78DBB2FF2B02D100220D4B1A700C4A1378DBB20B49CB5CDBB20B490B7013780133DBB21370064BE0
:406880001B78DBB2074A1278934204D0064B1B7813F0040FDFD07047B386FF1F6488FF1F43640040B486FF1F63640040014B1B689865704708ED00E04001C0B2014B18704E
:4068C000704700BF06E400E04022014B1A60704700E100E04022014B1A60704780E100E010B50446FFF7F6FF2046FFF7DFFF0720FFF7E2FFFFF7E8FF10BD00BF054A137823
:4069000043F0020313701032137843F002031370704700BFA243004008B500F01BFC00F023FC08BD08B5FFF7F7FF08BD30B583B00C468DF8070000F057FCB4F5006F54D2FC
:406940002509C5EB053319010C44A4B200F0F8FC00284CD1402021460DF10702012300F06FFC044607282FD1234B1B7813F0020FFAD0214B1B7813F0020F06D01E4B1B788E
:406980009B0805D04FF0FF3403E04FF0FF3400E00024E4B9194B402029461A785B7800F08BFC072816D1144B1B7813F0020FFAD0114B1B7813F0020F0FD00F4B1B789B0890
:4069C00010D04FF0FF340DE0012809D10AE04FF0FF3407E04FF0FF3404E04FF0FF3401E04FF0FF3400F0D2FC02E0012400E00424204603B030BD00BF224700406489FF1FB1
:406A000038B5044600F048FB054600F0D7FB04F1804000F500400478E4B200F0DDFB284600F03EFB204638BD014B1870704700BF75640040054A137843F0040313701032ED
:406A4000137843F004031370704700BFA2430040014B1870704700BF72640040014B1B681865704708ED00E04001C0B2014B1870704700BF04E400E01022014B1A60704787
:406A800000E100E01022014B1A60704780E100E010B50446FFF7F6FF2046FFF7DFFF0720FFF7E2FFFFF7E8FF10BD00BF08B5FFF7E9FF0248FFF7D2FF08BD00BF09600000F1
:406AC000014B1B685864704708ED00E04001C0B2014B1870704700BF01E400E00222014B1A60704700E100E00222014B1A60704780E100E010B50446FFF7F6FF2046FFF723
:406B0000DFFF0720FFF7E2FFFFF7E8FF10BD00BF0222014B1A60704780E200E0014B1878704700BF6564004008B500F0B5FA044A137843F01003137000F0B2FA08BD00BFB4
:406B400095640040014B1878704700BF6665004008B500F0A1FA044A137843F01003137000F09EFA08BD00BF9665004008B500F093FA044A137803F0EF03137000F090FA59
:406B800008BD00BF96650040014B1878704700BF68640040014B1870704700BF79640040084A137843F0010313701032137843F00103137002F64D32137843F00103137077
:406BC000704700BFA3430040014B1880704700BF044F0040014B1880704700BF064F0040014B1870704700BF034F004008B5194A137843F0020313700232137803F08F0397
:406C000043F010031370144B1A7802F0CF021A701A7842F030021A701A7802F0F0021A701A7842F00F021A70FF20FFF7CDFF8020FFF7D0FF0020FFF7D3FF084A137843F030
:406C40000103137002F65E32137843F00103137008BD00BF004F00400B4F0040A343004008B5054B1B7823B9FFF7C0FF0122024B1A70FFF795FF08BDB686FF1F044A137840
:406C800003F0FD03400000F0020018431070704720510040024B1878C0F34000704700BF21510040024B1878C0F38000704700BF21510040084A137843F002031370103262
:406CC000137843F00203137002F65932137843F001031370704700BFA3430040084A137803F0FE031370A2F66932137803F0FD0313701032137803F0FD031370704700BFA9
:406D00000C4F0040014B1870704700BF0F4F0040014B1878704700BF0F4F0040014B1880704700BF104F0040014B1880704700BF124F004008B5164A137803F001031370CA
:406D40000232137803F0FC031370124B1A7802F0CF021A701A7842F030021A701A7802F0F0021A701A7842F00F021A700A4A137843F0010313704FF6FF70FFF7CFFF4FF66E
:406D8000FF70FFF7D1FF0820FFF7BCFF08BD00BF0C4F0040174F00400D4F004008B5054B1B7823B9FFF7C6FF0122024B1A70FFF781FF08BDB786FF1F024B1B68C3F888008A
:406DC000704700BF08ED00E04001C0B2014B1870704700BF12E400E04FF48022014B1A60704700BF00E100E04FF48022014B1A60704700BF80E100E010B50446FFF7F4FF39
:406E00002046FFF7D9FF0720FFF7DEFFFFF7E4FF10BD00BF014B1B68D864704708ED00E04001C0B2014B1870704700BF03E400E00822014B1A60704700E100E00822014B86
:406E40001A60704780E100E010B50446FFF7F6FF2046FFF7DFFF0720FFF7E2FFFFF7E8FF10BD00BF044A137803F07F03C001C0B203431370704700BF20510040014B1878B8
:406E8000C009704721510040044A137803F0BF03800100F0400018431070704720510040024B1878C0F38010704700BF2151004008B500F05FF8A0F5004000B208BD00BFC7
:406EC00008B5002803DB80B280F4004002E0A0F5004080B200F048F808BD00BF024B187800F00F00704700BF69640040014B1870704700BF8964004008B50F20FFF7F6FF9F
:406F0000FFF7ECFF00F0C8F8034A137843F01003137000F0C5F808BD9964004008B500F07BF84FF4004000F01FF8044B1B7813B90122024B1A70FFF7DFFF08BDB886FF1F29
:406F4000024A137843F080031370704778650040014B1870704700BF89650040014B1878704700BF69650040014B1880704700BF10680040024B1B78024B188880B270478D
:406F80000864004090680040014B188880B2704790680040014B1880704700BF50680040014B1880704700BF7068004008B501E0FFF7EAFFFFF7D2FF10F0400FF8D108BDFB
:406FC00008B5134B1A7802F0F8021A701A7802F0FC021A70FFF7EAFF4FF40040FFF7DAFF4FF40040FFF7C0FF0020FFF7B1FFFFF7B5FF4FF40040FFF7D3FF00F04DF8054ABA
:40700000137843F01003137000F04AF808BD00BF786500409965004008B5054B1B7823B9FFF7CEFF0122024B1A70FFF789FF08BDB986FF1F014B1B689864704708ED00E0BB
:407040004001C0B2014B1870704700BF02E400E00422014B1A60704700E100E00422014B1A60704780E100E010B50446FFF7F6FF2046FFF7DFFF0720FFF7E2FFFFF7E8FFF6
:4070800010BD00BF000000000230800803D000BF01380046FCD17047EFF3108072B6704780F31088704700BF10B500F09DF800F047F9D0B900F086F90446072812D102E073
:4070C0000120FFF7DFFA0A4B1B7813F0020FF7D0074B1B7813F0020F04D0054B1B789B0800D1002400F052F900E00424204610BD2247004010B500F077F800F021F910BB7D
:40710000012000F0FFF8072818D11048022100F07DF802280AD102E00120FFF7B3FA0C4B1B7813F0020FF7D0002409E0084B1B7813F0020FE9D04FF0FF3401E04FF0FF345A
:4071400000F024F900E00424204610BD6489FF1F2247004008B5FFF7A7FF034610B9FFF7C9FF0346184608BD08B5FFF795FF0F4A137843F0080313701032137843F0080387
:407180001370C8220A4B1A700A4A137843F0100313701032137843F010031370064B1B7813F0200FFAD0FFF77BFF08BDA043004001470040AC43004000470040054A1378F5
:4071C00043F001031370034B1B7813F0020FFAD0704700BF02470040024A137803F0FE03137070470247004008B5FFF755FF064A137843F0080313701032137843F00803DB
:407200001370FFF74DFF08BDA043004070B506460D4600240CE00120FFF734FA064B1B7813F0010FF7D0054B1B7833550134E4B2AC42F3D3204670BD2247004020470040FD
